S00D0000436172726F2E7372656320
S113000012C02CC02BC02AC029C028C027C026C0BB
S113001025C024C023C022C021C020C01FC01EC0D0
S11300201DC01CC01BC011241FBECFE5D4E0DEBF21
S1130030CDBF10E0A0E6B0E0E6E4F5E002C0059034
S11300400D92A638B107D9F720E0A6E8B0E001C0C8
S11300501D92A838B207E1F76DD073C2D1CF809159
S1130060860081110DC08AEF90E09BBD8ABD8FE4AC
S113007093EC0197F1F700C000001BBC1ABC089573
S113008088B599B5C29799BD88BD8FE493EC019763
S1130090F1F700C0000088B599B5C29699BD88BD36
S11300A008958091860081110DC08AEF90E099BD7A
S11300B088BD8FE493EC0197F1F700C0000019BCF0
S11300C018BC08958AB59BB5C2979BBD8ABD8FE4C1
S11300D093EC0197F1F700C000008AB59BB5C29676
S11300E09BBD8ABD08951BBC1ABC19BC18BC0895DD
S11300F0949A9598969A979808958091870090E09D
S113010099BD88BD8091870090E09BBD8ABDF0DFDA
S113011008959498959A9698979A0895809187004F
S113012090E09BBD8ABD8091870090E099BD88BD19
S1130130F0DF0895CF93DF93CDB7DEB72C970FB6DA
S1130140F894DEBF0FBECDBF87B3886387BB81B38E
S1130150806381BB81B3806C81BB20E040E060E0C0
S11301608CE090E095D150D17DD167D1809187000A
S113017090E09BBD8ABD8091870090E099BD88BDC9
S113018082E690E004D12FE38DE093E0215080409B
S11301909040E1F700C0000077D1182F26D188E7FE
S11301A090E0F5D062E081E026D154D142E050E005
S11301B0BE01695F7F4F90E087D144D142E050E0B7
S11301C0BE016F5F7F4F90E07FD1CE010796DFD0F5
S11301D083E890E0DCD0CE010196D9D0123021F131
S11301E028F4112341F0113099F03FC0133031F15C
S11301F0143071F13AC081E0809386007EDFC59AA5
S113020087EA91E60197F1F700C00000C598C4CFD2
S11302101092860068DFC59A87EA91E60197F1F7A4
S113022000C00000C598B8CF1ADFC49A87EA91E6E7
S11302300197F1F700C00000C498AECFC49A87EAD2
S113024091E60197F1F700C00000C4982ADFA4CF1B
S113025081E080938600C59A87EA91E60197F1F7D9
S113026000C00000C5985ADF97CF1A3008F494CF25
S113027010938700C39A87EA91E60197F1F700C0CB
S11302800000C39889CF84E886BF06B607FEFDCF79
S113029083B1089581B9662319F086B7816086BF5A
S11302A040B984E086BF089584EA86BF06B607FE97
S11302B0FDCF089584E986BF89EF90E00197F1F7B7
S11302C000C00000089583B984EC86BF06B607FE1B
S11302D0FDCF089545E060E080E0DCDFE5DF8EE7F8
S11302E0F2DF8FEFF0DF8FEFEEDF87E893E1019726
S11302F0F1F700C0000084E3E6DF80E3E4DF83EC91
S113030099E00197F1F700C0000084E3DCDF80E3AB
S1130310DADF89EF90E00197F1F700C0000084E391
S1130320D2DF80E3D0DF89EF90E00197F1F700C0DE
S1130330000084E2C8DF80E2C6DF89EF90E0019725
S1130340F1F700C00000B6DF0895CF93DF93C82F04
S1130350ABDF8EE7B8DFDC2FD07F8D2F8560B3DF76
S11303608D2F8160B0DF80E1C89FE00111248C2FC4
S11303708560A9DF8C2F8160A6DF9CDF83EF91E08D
S11303800197F1F700C00000DF91CF910895CF935A
S1130390DF93EC018881882329F02196D6DF8991A7
S11303A08111FCCFDF91CF910895CF93DF93C82FB4
S11303B07BDF8EE788DFDC2FD07F8D2F846083DFA7
S11303C08D2F81DF80E1C89FE00111248C2F846090
S11303D07ADF8C2F78DF6EDF83EF91E00197F1F7FE
S11303E000C00000DF91CF91089581E0DEDF089521
S11303F08CE2DBDF08958158E62FF0E0E15AFF4FED
S11304009081890FD2DF089565DFF2DF8CE0CDDFC4
S113041086E0CBDF80E8C9DF0895CF93C82F44DF9F
S113042080ED51DF8C2F4FDF3FDF81ED4CDF2BDF81
S1130430C82F40DF8C2FCF91089540E060E080E02A
S113044029DF089580E0E9DF982F92959F708F70DF
S1130450892B089581E0E1DF982F92959F708F702A
S1130460892B089587B3866087BB1FBC1EBC8FB5DC
S113047081608FBD8EB588608EBD8EB581608EBD66
S11304808FB5806A8FBD08955F9BFECF8CB10895B0
S1130490322F22E02BB990BD89B988E18AB986E868
S11304A080BD8AB190E2399F90011124282B80E409
S11304B0489FA0011124422B90E8699FB0011124A8
S11304C0642B6AB9789408954532510518F4423082
S11304D008F004C0FB011082CB010895BB274A3009
S11304E031F4992322F4BDE2909581959F4F01C088
S11304F0BB27FB015527AA27880F991FAA1FA417FA
S113050010F0A41B83955051B9F7A05DAA3308F0ED
S1130510A95DA193009779F7B111B1931192CB0121
S113052000C0DC01FC01672F71917723E1F732975A
S113053004C07C916D9370836291AE17BF07C8F3BA
S10905400895F894FFCFBA
S1130546004043617267616E646F207369737465FA
S11305566D61203A76202000486F726120616374D1
S109056675616C3A00000F
S9030000FC
