:1000000019C033C032C031C030C02FC02EC02DC087
:100010002CC02BC02AC02AC028C027C026C025C09B
:1000200024C023C022C0C2C0C5C0D0C0D9C0E2C055
:10003000E5C0B2C011241FBECFE5D4E0DEBFCDBF06
:1000400010E0A0E6B0E0EEE9F2E002C005900D920B
:10005000A236B107D9F720E0A2E6B0E001C01D92B8
:10006000A436B207E1F780D018C1CACF1F920F9211
:100070000FB60F9211248F93109260008CB15F988D
:100080008F910F900FBE0F901F9018958091620076
:1000900081110DC08AEA90E09BBD8ABD8FE493EC8C
:1000A0000197F1F700C000001BBC1ABC089588B589
:1000B00099B58654910999BD88BD8FE493EC019759
:1000C000F1F700C0000088B599B58A5B9F4F99BDD4
:1000D00088BD08958091620081110DC08AEA90E088
:1000E00099BD88BD8FE493EC0197F1F700C0000043
:1000F00019BC18BC08958AB59BB5865491099BBD5F
:100100008ABD8FE493EC0197F1F700C000008AB537
:100110009BB58A5B9F4F9BBD8ABD08951BBC1ABCD3
:1001200019BC18BC0895949A9598969A9798089532
:100130008091630090E099BD88BD9BBD8ABDF3CFDF
:100140009498959A9698979A089580916300282F8D
:1001500030E03BBD2ABD92E0980F909363008F5F23
:1001600090E099BD88BDECCF87B3886387BB81B32E
:10017000806381BB81B3806C81BB20E040E060E0A4
:100180008CE090E06ED057D08091630090E09BBDF2
:100190008ABD99BD88BDC1E060D0482F50E047308E
:1001A0005105D8F5FA01ED5EFF4F0994C093620046
:1001B000BFDF03C010926200B1DFC59A87EA91E603
:1001C0000197F1F700C00000C598E6CF5FDFC49A41
:1001D00087EA91E60197F1F700C00000C498DCCFF0
:1001E000C49A87EA91E60197F1F700C00000C4982D
:1001F00071DFD2CFC0936200A8DFDFCFC093600071
:10020000C59A87EA91E60197F1F700C00000C5980A
:10021000809160008111FECFBFCF8A3008F4BCCF3F
:1002200080936300C39A87EA91E60197F1F700C0D3
:100230000000C398B1CF87B3866087BB1FBC1EBCCC
:100240008FB581608FBD8EB588608EBD8EB58160A3
:100250008EBD8FB5806A8FBD08955F9BFECF8CB138
:100260000895322F22E02BB990BD89B988E18AB96F
:1002700086E880BD8AB190E2399F90011124282B35
:1002800080E4489FA0011124422B90E8699FB001AF
:0E0290001124642B6AB978940895F894FFCF76
:02029E0001005D
:00000001FF
